:100000000C948B000C9433080C948A080C949D007B
:100010000C949D000C949D000C949D000C949D00EC
:100020000C949D000C949D000C949D000C949D00DC
:100030000C949D000C949D000C949D000C949D00CC
:100040000C94E9000C949D000C949D000C949D0070
:100050000C949D000C949D000C949D000C949D00AC
:100060000C949D000C949D008302CD07B207A1075C
:10007000AF050106DC05CC05C504E1047305800568
:100080000A0529054505CD07CD07CD07CD07CD07C5
:10009000CD07CD07CD07CD0766056105C007CD07A4
:1000A000CD07CD07CD07CD0744069206CD07D5066F
:1000B0006E06AB06CD07CD071B073B07CD076007D4
:1000C0005603CD07B7038D036E03CD07CF03A603F9
:1000D0007E046804CD07CD07B504CD07CD07CD0755
:1000E00089049F049404AA04CD07CD07CD07CD074A
:1000F000CF07CF07E402F302CD07CD07CD07CD0729
:100100009F02A402EE03FF03C402360320040C0383
:10011000CD074004400411241FBECFEFD8E0DEBF5E
:10012000CDBF23E0A0E0B1E001C01D92A13AB2072B
:10013000E1F70E94BA010C9455090C9400000F934A
:100140001F93CF93DF9380E895E20E94EF080E940F
:10015000E808082F0E94E1088DE00E94E1088AE08B
:100160000E94E10884E0080280011124C9E0D1E086
:10017000CE01895091408017910724F40E94E8082D
:100180008993F6CFC9E0D1E0CE0189509140801724
:10019000910724F489910E94E108F6CF0E94FF01A3
:1001A00088E1DF91CF911F910F910C94E1088FE4CA
:1001B0000E94E1088BE60E94E1088DE00E94E108C0
:1001C0008AE00E94E10868EE73E080E090E00C9421
:1001D00056011F920F920FB60F9211242F933F9347
:1001E0008F939F93AF93BF938091010190910201F0
:1001F000A0910301B09104013091000123E0230F8D
:100200002D3720F40196A11DB11D05C026E8230F4E
:100210000296A11DB11D20930001809301019093CE
:100220000201A0930301B093040180910501909114
:100230000601A0910701B09108010196A11DB11D11
:100240008093050190930601A0930701B0930801E4
:10025000BF91AF919F918F913F912F910F900FBEC2
:100260000F901F9018953FB7F894809105019091D9
:100270000601A0910701B091080126B5A89B05C011
:100280002F3F19F00196A11DB11D3FBF6627782FA2
:10029000892F9A2F620F711D811D911D42E0660FFB
:1002A000771F881F991F4A95D1F70895CF92DF9243
:1002B000EF92FF92CF93DF936B017C010E94330199
:1002C000EB01C114D104E104F10489F00E94C901D9
:1002D0000E9433016C1B7D0B683E734090F381E0FC
:1002E000C81AD108E108F108C851DC4FEACFDF9104
:1002F000CF91FF90EF90DF90CF900895789484B5E0
:10030000826084BD84B5816084BD85B5826085BD11
:1003100085B5816085BDEEE6F0E0808181608083F7
:10032000E1E8F0E0108280818260808380818160DA
:100330008083E0E8F0E0808181608083E1EBF0E0A1
:10034000808184608083E0EBF0E080818160808345
:10035000EAE7F0E08081846080838081826080832E
:100360008081816080838081806880831092C10059
:10037000089508950E947E010E94B9010E949F0085
:10038000C0E0D0E00E94D7002097E1F30E94000077
:10039000F9CF0895CF92DF92EF92FF920F931F93C0
:1003A0008B019C01DC01CB010396A11DB11DFC0159
:1003B000E75FFE4F6081F801E75FFE4F408170E02C
:1003C00080E090E0942B680179014FEFC41AD40AC1
:1003D000E40AF40AF601E75FFE4F4081842B0E5FCA
:1003E0001F4F2F4F3F4FF801E75FFE4F2081722BC9
:1003F0001F910F91FF90EF90DF90CF9008953F9263
:100400004F925F926F927F928F929F92AF92BF9224
:10041000CF92DF92EF92FF920F931F93CF93DF93D0
:10042000CDB7DEB760970FB6F894DEBF0FBECDBF75
:100430001092090310920A0310920B0310920C03FE
:1004400081E090E0A0E0B0E0809385039093860384
:10045000A0938703B09388031D861E861F86188A83
:1004600020E030E0A901812C912C54016D857E851E
:100470008F8598892D833E834F8358870E94CA01B8
:1004800069877A878B879C872B013C0175E176947D
:100490006794579447947A95D1F7042D0F71302EB5
:1004A0008F71D82E49845A846B847C84EBE07694D7
:1004B000679457944794EA95D1F7942D9F71498496
:1004C0005A846B847C8413E07122E984FA840B855E
:1004D0001C85FAE116950795F794E794FA95D1F7FC
:1004E000E982FA820B831C832D813E814F815885DE
:1004F00087010C32110508F050C5B7016C5C7F4FC5
:10050000FB010C944F0949845A846B847C8466E017
:1005100076946794579447946A95D1F7142D1F7178
:1005200069856F73462E512CFBE24F16510408F07B
:1005300034C5B201605A7F4FFB010C944F09F4E0BF
:100540009F9FB001112404C0B4E09B9FB00111240F
:10055000675F7C4F04E0D09EF0011124E75FFC4F01
:1005600014E0319ED0011124A75FBC4F4080518020
:10057000628073808D919D910D90BC91A02D480E4D
:10058000591E6A1E7B1E6BC0B4E09B9FB0011124F4
:10059000675F7C4F04E0809FF0011124E75FFC4F10
:1005A00014E0319ED0011124A75FBC4F40805180E0
:1005B000628073808D919D910D90BC91A02D4822F9
:1005C00059226A227B224BC0E4E03E9ED0011124D6
:1005D000A75FBC4F6D917D918D919C9104E0D09E61
:1005E000F00111240EC014E0319ED0011124A75F48
:1005F000BC4F6D917D918D919C9124E0D29EF00134
:100600001124E75FFC4F20813181428153810E9498
:100610000E094B015C01C1C484E0989FB001112414
:10062000675F7C4F94E0D99EF0011124E75FFC4F97
:1006300004E0309ED0011124A75FBC4F4080518060
:10064000628073808D919D910D90BC91A02D482A60
:10065000592A6A2A7B2A4094509460947094DB0152
:100660004D925D926D927C92139797C4B4E09B9FDC
:10067000B0011124675F7C4F04E0809FF0011124DA
:10068000E75FFC4F14E0319ED0011124A75FBC4FFF
:1006900040805180628073808D919D910D90BC91BE
:1006A000A02D482A592A6A2A7B2AD9CFE4E09E9FA6
:1006B000D0011124A75FBC4F04E0809FF0011124FA
:1006C000E75FFC4F408051806280738004C0440C1F
:1006D000551C661C771C1A95D2F7C2CF14E0919F67
:1006E000B0011124675F7C4F84E0D89EF001112493
:1006F000E75FFC4F94E0399ED0011124A75FBC4F07
:1007000040805180628073800C9004C0440C551C62
:10071000661C771C0A94D2F7A2CFB4E09B9FF0012D
:100720001124E75FFC4F04E0309ED0011124A75F45
:10073000BC4F8D919D910D90BC91A02D04C0B6959C
:10074000A795979587951A95D2F72AC314E0919F9C
:10075000B0011124675F7C4F84E0D89EF001112422
:10076000E75FFC4F94E0399ED001112428C0B4E02B
:100770009B9FB0011124675F7C4F04E0809FF001D4
:100780001124E75FFC4F80819181A281B38104C075
:10079000B695A795979587951A95D2F74FC0F4E02F
:1007A0009F9FB0011124675F7C4F04E0809FF001A0
:1007B0001124E75FFC4F14E0319ED0011124A75FA4
:1007C000BC4F40805180628073800C9004C076944E
:1007D0006794579447940A94D2F741CFB4E09B9F13
:1007E000B0011124675F7C4FE4E03E9ED0011124EC
:1007F000A75FBC4F04E0809FF001112410C0F4E01B
:100800009F9FB0011124675F7C4F04E0309ED001B0
:100810001124A75FBC4F14E0819FF0011124E75F12
:10082000FC4F8D919D910D90BC91A02D40805180E9
:100830006280738084199509A609B709FB01B0C2CB
:10084000F4E09F9FB0011124675F7C4F04E0809F1C
:10085000F0011124E75FFC4F14E0319ED001112418
:10086000A75FBC4F40805180628073808D919D91C5
:100870000D90BC91A02D482659266A267B26EFCEE6
:10088000B4E09B9FB0011124675F7C4FE4E03E9E83
:10089000D0011124A75FBC4F04E0809FF001112418
:1008A000E75FFC4F412C512C32014394ED90FD90B9
:1008B0000D911C9180819181A281B381E816F90686
:1008C0000A071B0708F4CBCE412C512C3201C7CEAE
:1008D000CD84DE84EF84F888B8E0CB0ED11CE11C17
:1008E000F11CC0928503D0928603E0928703F092B8
:1008F0008803E4E03E9ED001112404C004E0309E51
:10090000D0011124A75FBC4FED90FD900D911C917B
:1009100032C304E0909FF0011124E75FFC4F808216
:100920009182A282B38239C314E0919FF001112415
:10093000E75FFC4F20833183428353832EC364E0FF
:10094000369ED0011124A75FBC4F8D909D90AD9035
:10095000BC9023C374E0379ED0011124A75FBC4F25
:100960002D913D914D915C9118C3809111032D8380
:100970003E834F8358870E94FD0761E02D813E81B1
:100980004F815885811113C308C384E0D89EF001BC
:100990001124E75FFC4F94E0399ED0011124A75F3A
:1009A000BC4F49845A846B847C84662477248D915F
:1009B0009D910D90BC91A02D840D951DA61DB71D78
:1009C000EFC1E82FF0E0A4E03A9EC0011124875F58
:1009D0009C4FDC016D917D918D919C9149845A844D
:1009E0006B847C8466247724E984FA84F7FE03C050
:1009F00066246A94762CEE0FFF1FEE0FFF1FE75F51
:100A0000FC4F460E571E681E791E4082518262823C
:100A10007382C3C204E0809FF0011124E75FFC4FA2
:100A200069857A858B859C858827992714E0319E76
:100A3000D0011124A75FBC4F4D905D906D907C90CC
:100A4000642175218621972160837183828393833A
:100A5000A4C264E0869FF0011124E75FFC4F74E0BC
:100A6000379ED0011124A75FBC4F49845A846B8400
:100A70007C84662477248D919D910D90BC91A02D4E
:100A800084299529A629B7298BC184E0989FF00174
:100A90001124E75FFC4F94E0399ED0011124A75F39
:100AA000BC4F49845A846B847C84662477248D915E
:100AB0009D910D90BC91A02D84259525A625B72547
:100AC0006FC1A4E08A9FF001112404C0B4E08B9FA1
:100AD000F0011124E75FFC4F89859A85AB85BC85C1
:100AE000AA27BB275DC1E4E08E9F60011124860127
:100AF000075F1C4F680114E0319ED00111240CC027
:100B0000B4E08B9F60011124F601E75FFC4F6F0199
:100B1000F4E03F9ED0011124A75FBC4F69857A8520
:100B20008B859C858827992769837A838B839C830F
:100B3000412C512C320143948D919D910D90BC918B
:100B4000A02DE980FA800B811C818E159F05A007DE
:100B5000B10718F0412C512C3201D60181CDB4E0FF
:100B60003B9EB0011124675F7C4FE4E08E9F8001C3
:100B70001124075F1C4FDB01CD90DD90ED90FC90C0
:100B8000F8014080518062807380C414D504E6046B
:100B9000F70409F06CC050C074E0379ED0011124F6
:100BA000A75FBC4F4D905D906D907C904528462886
:100BB000472809F45CC00FC074E0379ED0011124AF
:100BC000A75FBC4F4D905D906D907C904528462866
:100BD000472809F04CC08D859E85AF85B88904965D
:100BE000A11DB11D69857A85660F771F660F771F76
:100BF000860F971FA11DB11D8D879E87AF87B88B6C
:100C000035CC84E0389EB0011124675F7C4F94E0BE
:100C1000D99E80011124075F1C4FDB01CD90DD9030
:100C2000ED90FC90F8014080518062807380C41484
:100C3000D504E604F704D9F06D857E858F85988903
:100C40006C5F7F4F8F4F9F4F6D877E878F87988B0D
:100C500069857A85660F771F660F771FED84FE849E
:100C60000F851889E60EF71E011D111D84C16D85C3
:100C70007E858F859889685F7F4F8F4F9F4F6D87E7
:100C80007E878F87988BF2CB74E0379ED00111243A
:100C9000A75FBC4F69857A858B859C8588279927B6
:100CA0004D905D906D907C90640D751D861D971D17
:100CB000DB01A75FBE4F6C9184E0D89EF001112448
:100CC000E75FFC4F862F807890E0A0E0B0E0B82F7F
:100CD000AA27992788276F77862B62C094E0899F7F
:100CE00080011124075F1C4FA4E03A9EB00111243B
:100CF000675F7C4F89859A85AB85BC85AA27BB2712
:100D0000FB014080518062807380840D951DA61D7B
:100D1000B71DDC01A75FBE4F8C9190E0A0E0B0E072
:100D2000F8013EC0F4E03F9ED0011124A75FBC4F04
:100D300069857A858B859C85882799274D905D905C
:100D40006D907C90640D751D861D971D04E0D09EEE
:100D5000F001112418C014E0319ED0011124A75FC6
:100D6000BC4F69857A858B859C85882799274D900E
:100D70005D906D907C90640D751D861D971DA4E09F
:100D8000DA9EF0011124E75FFC4F6F5F7F4F8F4FBA
:100D90009F4FDB01A75FBE4F8C9190E0A0E0B0E0D9
:100DA00080839183A283B383F8C0E4E03E9ED001A8
:100DB0001124A75FBC4FE984FA840B851C850027AA
:100DC00011274D905D906D907C90E40CF51C061DF4
:100DD000171DF4E08F9FB0011124675F7C4F27013E
:100DE000380183E0480E511C611C711CD201A75FC1
:100DF000BE4F4C90D701A75FBE4FAC91512C612CD8
:100E0000712C7A2AD801C7010196A11DB11D8983D1
:100E10009A83AB83BC83DC01A75FBE4FAC916A2A87
:100E2000D801C7010296A11DB11DDC01A75FBE4F0D
:100E30008C91582A14CCE4E03E9ED0011124A75F87
:100E4000BC4F69857A858B859C85882799274D902D
:100E50005D906D907C90640D751D861D971DDB0166
:100E6000A75FBE4F04E0D09EF0011124E75FFC4F66
:100E700080818C9392C014E0319ED0011124A75F31
:100E8000BC4F69857A858B859C85882799274D90ED
:100E90005D906D907C90640D751D861D971DA4E07E
:100EA000DA9EF0011124E75FFC4FA081B181FB01C4
:100EB000E75FFE4FB0836F5F7F4F8F4F9F4F3CC008
:100EC000E4E03E9ED0011124A75FBC4F69857A857E
:100ED0008B859C85882799274D905D906D907C909F
:100EE000640D751D861D971D04E0D09EF001112430
:100EF000E75FFC4FA081B18112810381FB01E75FB5
:100F0000FE4F00832B013C01EFEF4E1A5E0A6E0A82
:100F10007E0AF201E75FFE4F10832B013C01F2E0F5
:100F20004F0E511C611C711CF201E75FFE4FB08334
:100F30006D5F7F4F8F4F9F4FFB01E75FFE4FA08399
:100F40002CC0CD84DE84EF84F88808E0C00ED11C6C
:100F5000E11CF11CC0928503D0928603E0928703C6
:100F6000F09288038301720192E0EE0CFF1C001FD7
:100F7000111F9A95D1F7ED86FE860F87188B76CADA
:100F8000842D2D833E834F8358870E94FD0760E0A8
:100F90002D813E814F8158850AC060E008C060E025
:100FA0002FEF3FEFA90188248A94982C54018D8556
:100FB0009E85AF85B8890496A11DB11D8D879E873A
:100FC000AF87B88B662309F451CA60960FB6F894C0
:100FD000DEBF0FBECDBFDF91CF911F910F91FF906C
:100FE000EF90DF90CF90BF90AF909F908F907F90C9
:100FF0006F905F904F903F9008958B3031F08C3020
:10100000C9F08A3061F581E0089580E092E0A0E0C7
:10101000B0E080937D0390937E03A0937F03B09311
:1010200080038093810390938203A0938303B09302
:10103000840315C060911503709116038091170306
:10104000909118030E94310890E0A0E0B0E08093F6
:10105000110390931203A0931303B093140380E041
:1010600008958FEF08951F920F920FB60F921124DB
:101070000F931F932F933F934F935F936F937F93A0
:101080008F939F93AF93BF9386B590E0A0E0B0E0BD
:101090004091990350919A0360919B0370919C0336
:1010A0008C019D01041B150B260B370B009391033C
:1010B00010939203209393033093940380939903A6
:1010C00090939A03A0939B03B0939C038091890310
:1010D00090918A03A0918B03B0918C030196A11D7E
:1010E000B11D8093890390938A03A0938B03B093DF
:1010F0008C03BF91AF919F918F917F916F915F9181
:101100004F913F912F911F910F910F900FBE0F9014
:101110001F9018951F920F920FB60F9211240F93E4
:101120001F932F933F934F935F936F937F938F936F
:101130009F93AF93BF9386B590E0A0E0B0E040915D
:101140009D0350919E0360919F037091A0038C01B9
:101150009D01041B150B260B370B00939503109371
:101160009603209397033093980380939D03909365
:101170009E03A0939F03B093A00380918D03909151
:101180008E03A0918F03B09190030196A11DB11D14
:1011900080938D0390938E03A0938F03B09390035D
:1011A000BF91AF919F918F917F916F915F914F917F
:1011B0003F912F911F910F910F900FBE0F901F9095
:1011C00018959091C00095FFFCCF8093C6000895BC
:1011D0008091C00087FFFCCF8091C60008959C01DC
:1011E00040E050E060E472E48FE090E00E9430095B
:1011F000DA01C9010197A109B109892F9A2FAB2FF3
:10120000BB27A7FDBA958093C50021502093C40049
:10121000E1ECF0E08081886180830895A1E21A2EDC
:10122000AA1BBB1BFD010DC0AA1FBB1FEE1FFF1F8A
:10123000A217B307E407F50720F0A21BB30BE40BDA
:10124000F50B661F771F881F991F1A9469F7609521
:101250007095809590959B01AC01BD01CF010895DB
:10126000052E97FB1EF400940E94470957FD07D0F6
:101270000E940E0907FC03D04EF40C9447095095C8
:101280004095309521953F4F4F4F5F4F0895909572
:101290008095709561957F4F8F4F9F4F0895EE0F0A
:0E12A000FF1F0590F491E02D0994F894FFCF04
:00000001FF
